:10000000E9C000000FC100000DC100000BC10000DD
:1000100009C1000007C1000005C1000003C10000C4
:1000200001C10000FFC00000DFC4000057C3000092
:10003000F9C00000F7C00000F5C00000F3C00000E8
:10004000F1C00000EFC00000EDC00000EBC00000F8
:10005000E9C00000E7C00000E5C0000086C2000063
:10006000E1C00000DFC00000DDC00000DBC0000018
:10007000D9C00000D7C00000D5C00000D3C0000028
:10008000D1C00000CFC00000CDC00000CBC0000038
:10009000C9C00000C7C0000001290229042908299D
:1000A0001029202940298029012C022C0126022612
:1000B000042608261026202640268026402C802C48
:1000C0000123022304230823102320234023802319
:1000D0000120022004200820102020204020802021
:1000E000102C202C012F022F042F082F102F202F2F
:1000F000402F802F7EFE7EFD7EFB7EF77EEF7EDF33
:100100007EBF7E7F00010000380112000200004A1D
:100110000143000300008D0104010309049101184B
:1001200002030904AB011603030904C3010C000117
:10013000C102018036018136120100020200002056
:10014000C0168304000101020301090243000201F9
:1001500000C0320904000001020201000524001061
:1001600001052401000104240206052406000107FC
:1001700005820308004009040100020A000000078C
:100180000503024000000705840240000004030943
:100190000418035400650065006E00730079006464
:1001A00000750069006E006F0000001603550053D3
:1001B0000042002000530065007200690061006C7D
:1001C0000000000C03310032003300340035000021
:1001D00000000E0711241FBECFEFD0E2DEBFCDBF5F
:1001E00011E0A0E0B1E0E0E3FFE000E00BBF02C0FF
:1001F00007900D92A633B107D9F71BBE11E0A6E315
:10020000B1E001C01D92AB34B107E1F711E0C4EDDC
:10021000D1E003C02297FE0185D6C23DD107D1F7B8
:1002200061D484C6EDCE0F931F93E0914201F0910B
:10023000430102E411E00280F381E02DC80160E097
:1002400071E00995C80152D468EE73E080E090E057
:10025000CCD180911601E82FF0E051D080911801A7
:10026000E82FF0E04CD080911A01E82FF0E047D061
:1002700068EE73E080E090E0B8D180911601E82F3D
:10028000F0E043D080911801E82FF0E03ED080915B
:100290001A01E82FF0E039D01F910F91089582E400
:1002A00091E040E855E260E070E0E8D58091160109
:1002B00015D08091180112D080911A010FD0809131
:1002C0001601E82FF0E021D080911801E82FF0E02E
:1002D0001CD080911A01E82FF0E017C08E3270F424
:1002E000E8E9F0E0880FE80FF11D9591E491F0E066
:1002F0002FB7F8948181892B81832FBF0895EE3227
:1003000050F4EE0FE457FE4F0994EE3220F4EE0F56
:10031000E851FE4F09940895589AB6C0599AD0C032
:100320005A9A08955B9A08955C9A08955D9A089583
:100330005E9A08955F9A0895709A0895719A089543
:10034000409A0895419A0895429A0895439A0895CB
:10035000449AC8C0459AC0C0469AB8C0479A089502
:10036000769A0895779A0895289A0895299A089573
:100370002A9A08952B9A08952C9A9CC02D9A88C089
:100380002E9A8CC02F9A90C0109A0895119A0895B1
:10039000129A0895139A0895149A0895159A089533
:1003A000169A0895179A0895749A0895759A08955B
:1003B000889A0895899A08958A9A08958B9A08953B
:1003C0008C9A08958D9A08958E9A08958F9A08951B
:1003D00058985AC0599874C05A9808955B980895CF
:1003E0005C9808955D9808955E9808955F980895C3
:1003F00070980895719808954098089541980895C7
:10040000429808954398089544986CC0459864C0F4
:1004100046985CC04798089576980895779808950F
:1004200028980895299808952A9808952B98089552
:100430002C9840C02D982CC02E9830C02F9834C0D6
:100440001098089511980895129808951398089592
:100450001498089515980895169808951798089572
:1004600074980895759808958898089589980895BE
:100470008A9808958B9808958C9808958D9808957A
:100480008E9808958F980895E4B5EF7DE4BD0895A2
:10049000E0918000EF77E09380000895E091800084
:1004A000EF7DE09380000895E0918000E77FE09386
:1004B00080000895E091B000EF77E093B0000895D8
:1004C000E091B000EF7DE093B0000895E0919000DE
:1004D000EF77E09390000895E0919000EF7DE09336
:1004E00090000895E0919000E77FE09390000895D8
:1004F0001DBA109268001CBC10BE1FBA10927A0080
:1005000010926E0010926F001092700010927100A5
:100510001092C9001092BC0011B814B817B81AB8DC
:100520001DB810BA12B815B818B81BB81EB811BA51
:100530000895F89480E29EE40197F1F781E08093BA
:10054000E00080E28093D80080E69AEE0197F1F710
:10055000CFDF0C9400FEFFCFF894CADF80E69AEE5E
:100560000197F1F70C940000FFCF8F938FB78F9313
:1005700080913E018D5F8D37D0F480933E01809154
:100580003A018F5F80933A01D8F080913B018F4F01
:1005900080933B01A8F080913C018F4F80933C01F8
:1005A00078F080913D018F4F80933D0109C08D57B8
:1005B00080933E0180913A018E5F80933A0128F743
:1005C000809136018C5F8093360158F0809137011D
:1005D0008F4F8093370128F0809138018F4F80939F
:1005E00038018F918FBF8F9118959B01AC0114D06A
:1005F000FB010CC011D06E1B7F0B685E7340D0F303
:100600002150304040405040E851FC4F2115310509
:100610004105510579F708950FB6F89466B515B2FE
:100620007091360180913701909138010FBE10FE14
:1006300005C06F3F19F07C5F8F4F9F4F112400243E
:10064000660F001C660F001C70290895F894E1E6FF
:10065000F0E020E82083108283E084BD85BDEEE6D3
:10066000F0E080818160808391E09093800082E05F
:10067000809381009093B0008093B100909390009C
:100680008093910086E880937A0020937B001092FB
:100690007E0002D0789408958091D80087FF02C030
:1006A00085FF1BC081E88093D70080EA8093D80043
:1006B00086E189BD09B400FEFDCF80E98093D800B2
:1006C0001092E00010924B0110924C0110924D01DB
:1006D0001092E1008DE08093E20008951F920F9246
:1006E0000FB60F920BB60F9211242F933F934F9397
:1006F0005F936F937F938F939F93AF93BF93EF938A
:10070000FF931092E9008091E80083FF57C1209188
:10071000F1009091F1004091F1005091F100609151
:10072000F1007091F100A091F100B091F10082EF21
:100730008093E800963009F044C0E4E0F1E020E066
:10074000859195918417950711F0359617C085917D
:1007500095918617970711F0339610C02591359122
:100760004491CD01AF3FB10519F010F08FEF90E04B
:10077000841708F4482FF9015EEF04C02F5F26307C
:10078000F9F61CC18091E800282F30E0C90185707E
:100790009070892BB9F322FD14C1242F413208F047
:1007A00020E2922F04C085918093F100915099230B
:1007B000D1F7421B5093E800442321F7203211F374
:1007C00000C1953061F48EEF8093E8008091E800DD
:1007D00080FFFCCF842F80688093E300F2C09930C3
:1007E00009F5222309F0EAC040934B0110924D0114
:1007F00010923F018EEF8093E800EEE2F1E091E08D
:100800009093E90085918093EB00882331F08591E6
:100810008093EC0085918093ED009F5F953081F788
:100820008EE1C7C0983061F4203809F0C7C08091CC
:10083000E80080FFFCCF80914B018093F10096C0CF
:100840009132A9F4213A09F0B9C08091E80080FF03
:10085000FCCF20E030E0F901E45EFE4F8081809320
:10086000F1002F5F3F4F27303105A9F77FC090324D
:1008700009F04BC0213209F0A1C08091E80082FF4D
:10088000FCCF20E030E0F901E45EFE4F8091F10002
:1008900080832F5F3F4F27303105A9F78BEF80937F
:1008A000E8008EEF8093E80080911C0190911D017B
:1008B000A0911E01B0911F0186389105A105B105D7
:1008C00019F48FE08093400180911C0190911D01EB
:1008D000A0911E01B0911F0186399105A105B105B6
:1008E00009F06FC084E08093E9002FEF06C02093E9
:1008F000E8008091E80082FDFCCF8091EE0090E05E
:1009000083709070892B99F727DE923251F421324F
:1009100009F054C040934D018091E80080FFFCCF66
:1009200025C0933241F4213209F048C08091E8009B
:1009300080FFFCCF1BC09923E9F48091E80080FF81
:10094000FCCF223811F080E00DC06093E900809167
:10095000EB0090E025E0969587952A95E1F7817068
:100960001092E9008093F1001092F1008EEF8093D5
:10097000E80027C0913011F0933001F52230F1F4F6
:10098000452BE1F4262F2F77822F81508630B0F44B
:100990008EEF8093E8002093E900933079F089E1AD
:1009A0008093EB0081E090E002C0880F991F2A95A8
:1009B000E2F78093EA001092EA0003C081E280939C
:1009C000EB00FF91EF91BF91AF919F918F917F913C
:1009D0006F915F914F913F912F910F900BBE0F90B0
:1009E0000FBE0F901F9018951F920F920FB60F9287
:1009F0000BB60F9211242F933F934F935F936F93F6
:100A00007F938F939F93AF93BF93EF93FF938091C7
:100A1000E1001092E100982F83FF11C01092E900CD
:100A200081E08093EB001092EC0082E28093ED0075
:100A300088E08093F00010924B0110924D0192FFDC
:100A40001DC080914B018823C9F080913F0188230C
:100A500059F0815080933F01882331F484E08093E2
:100A6000E9008AE38093E80080914001882331F017
:100A7000815080934001882309F45BDD90FF0CC016
:100A800080E18093E20010924B0181E080934C0161
:100A900080EA8093D80019BC80914C01882379F0BA
:100AA00094FF0DC086E189BD09B400FEFDCF80E949
:100AB0008093D8008DE08093E20010924C01FF916A
:100AC000EF91BF91AF919F918F917F916F915F91C6
:100AD0004F913F912F910F900BBE0F900FBE0F9033
:100AE0001F901895B3DDDBDB9EDBFECFDF93CF934A
:100AF00000D0CDB7DEB7DC018DE089838AE08A8340
:100B0000ED91FC9111970480F581E02DCD01BE019E
:100B10006F5F7F4F42E050E009950F900F90CF91AB
:100B2000DF910895DF93CF930F92CDB7DEB7FC012D
:100B30006983A081B18114962D913C911597BE01D6
:100B40006F5F7F4F41E050E0F90109950F90CF9121
:100B5000DF910895FC019FB7F89480914B018823A1
:100B600011F420E010C083E08093E9002091F200AE
:100B7000222349F48091E80082FF05C085FD03C06F
:100B80008BE68093E8009FBF8781908597FD03C027
:100B90002F3F09F02F5F822F90E00895CF93DF93CE
:100BA000EC018F81988597FF09C0E881F981008465
:100BB000F185E02DCE01099598878F838F819885E7
:100BC000DF91CF910895FC012781308537FD05C065
:100BD0008FEF9FEF9087878322C02FB7F894809183
:100BE0004B01882369F083E08093E9009BE68091C4
:100BF000E80085FD09C082FF03C09093E800F7CFAD
:100C00002FBF2FEF3FEF0CC09091F1008091E800D3
:100C100085FD03C08BE68093E8002FBF292F30E0CD
:100C2000C9010895FC0180914B01882371F09FB7A1
:100C3000F89483E08093E9002BE602C02093E8005B
:100C40008091E80085FDFACF9FBF8FEF9FEF9087DF
:100C5000878308950F931F93CF93DF93EB018091C8
:100C60004B01882309F4D5C03FB7F89484E0809302
:100C7000E90080914101882309F4C0C08091E80017
:100C800085FFC6C010924101B9C09091E400915F08
:100C90008091E80085FD13C03FBF8091E400891773
:100CA00021F481E080934101B4C080914B018823FD
:100CB00009F4AFC03FB7F8940093E900E9CF809101
:100CC000F200212F281B822F90E04817590708F4C3
:100CD000242FE0E4E21BE03428F4EE0FFF27ED5868
:100CE000F94F099480C089918C9389918C93899153
:100CF0008C9389918C9389918C9389918C93899110
:100D00008C9389918C9389918C9389918C938991FF
:100D10008C9389918C9389918C9389918C938991EF
:100D20008C9389918C9389918C9389918C938991DF
:100D30008C9389918C9389918C9389918C938991CF
:100D40008C9389918C9389918C9389918C938991BF
:100D50008C9389918C9389918C9389918C938991AF
:100D60008C9389918C9389918C9389918C9389919F
:100D70008C9389918C9389918C9389918C9389918F
:100D80008C9389918C9389918C9389918C9389917F
:100D90008C9389918C9389918C9389918C9389916F
:100DA0008C9389918C9389918C9389918C9389915F
:100DB0008C9389918C9389918C9389918C9389914F
:100DC0008C9389918C9389918C9389918C9389913F
:100DD0008C9389918C9389918C9389918C9389912F
:100DE0008C9389918C938091E80085FD02C070936B
:100DF000E800421B510960933F0106C004E010E483
:100E0000A1EFB0E07AE363E04115510509F03DCF71
:100E10003FBFDF91CF911F910F910895E2E4F1E080
:100E200089E0DF011D928A95E9F788EE93E0A0E062
:100E3000B0E08093440190934501A0934601B093A4
:100E400047011092480187E291E09093430180931B
:100E500042010895CF93DF93DB010D900020E9F765
:100E60001197A61BB70BEC01E881F9810480F5818D
:100E7000E02DAD010995DF91CF9108952FEF3FEF60
:100E8000FC013087278308DC0FB6F89480913A0183
:100E900090913B01A0913C01B0913D010FBEAC018E
:100EA00080914B01882329F068EC70E080E090E0AD
:100EB0009CCB80914C01882309F10FB6F894809166
:100EC0003A0190913B01A0913C01B0913D010FBED0
:100ED0009C0110C00FB6F89480913A0190913B01AB
:100EE000A0913C01B0913D010FBE821B930B8B3F43
:100EF0009105A8F480914C01882361F70FB6F8940E
:100F000080913A0190913B01A0913C01B0913D014B
:100F10000FBE841B950B855C994008F4C1CF0895E2
:100F2000EE0FFF1F0590F491E02D0994F894FFCF88
:100F300048656C6C6F2E2E2E2046726F6D204F70A0
:100F4000656E20534C0006000700030000E100001E
:100F50000000080000000092052A072A06AA05E3FF
:060F600005CE051206009B
:00000001FF
